:10000000F72B00308A000408840A820700343F344A
:1000100006345B344F3466346D347D3407347F34BA
:020020006F343B
:10062C00013426234B233123AF236A23182B0028B4
:10063C0064008001840A04060319003404061F2B8D
:10064C0083160108F83902388100811281111030AB
:10065C0085008601080000308312051A01309500D0
:10066C001508140603193B2B3C2B3F2B9701970ABB
:10067C00482B09301702031C442B452B482B15081B
:10068C00980097011508940008000B1D4E2B4F2B5A
:10069C00692B0B110130CF004F08831293071708F9
:1006AC000319592B5A2B5E2B0130CF004F0897079B
:1006BC0016080319622B632B692B01309007031862
:1006CC00910A00309107080083121208033999002F
:1006DC001308033919060319742B752BAE2B8601DD
:1006EC000510851005118511972B0C08013E84000F
:1006FC00012086000514A62B0D08013E8400012064
:10070C0086008514A62B0E08013E8400012086006D
:10071C000515A62B0F08013E8400012086008515C7
:10072C00A62B13080339003A03197B2B013A031942
:10073C00822B033A0319892B013A0319902BA62B10
:10074C0013080339990012081906FC39190692008E
:10075C00080083121808031DB42BB52BBF2B1608E9
:10076C000319B92BBB2B0130BC2B00309600980120
:10077C00980A01301102E93003191002031CC72B2F
:10078C00C82BF62B9001910109300C06031DCF2BC1
:10079C00D02BF32B8C0105300D06031DD62BD72B3C
:1007AC00EF2B8D0109300E06031DDD2BDE2BEB2B01
:1007BC008E0105300F06031DE42BE52BE72B8F0173
:1007CC00F62B0F08013E8F00F62B0E08013E8E0013
:1007DC00F62B0D08013E8D00F62B0C08013E8C000B
:1007EC0008001623980083130C30840018301E2345
:0407FC008301172B33
:02400E00F93F78
:00000001FF
