:020000000528D1
:10000800090087200B20152027204F2006280B1DCC
:1000180014280B118C0A8D08031D8D0A0E188F0ADF
:1000280008001030050590001102031D23280D0853
:10003800083C031C2428100892008D0124280D1464
:10004800100891000800121A2C2801308E0612168A
:100058000F08E83C031C4E288F011308093A031DBA
:10006800462893011408053A031D482894011508E9
:10007800093A031D4A2895011608053A031D4C281C
:1000880096014E28930A4E28940A4E28950A4E281F
:10009800960A4E2808000C08033997001806031919
:1000A8007B2886011030850000308A0017088207F7
:1000B800602866286C2872288A0113087C2086002C
:1000C800051478288A0114087C208600851478286D
:1000D8008A0115087C208600051578288A011608EB
:1000E8007C20860085157828170898007B2808004A
:1000F80082073F3406345B344F3466346D347D34C4
:1001080007347F346F348316D23081001030850075
:0801180000308600831208008C
:02400E00F93F78
:00000001FF
