:020000000528D1
:10000800090097200B2017202A205B2006280B1DAB
:1000180016280B118C0A8D08031D8D0A0E188F0FD8
:100028001628900A08001030050591001202031DD9
:1000380025280D08083C03182728110893008D016E
:10004800272801308D00110892000800131A2F2864
:1000580001308E0613161008013C031D38280F08BE
:10006800E83C031C3B285A28031C3B285A288F01CC
:1000780090011408093A031D522894011508053AFD
:10008800031D542895011608093A031D56289601A0
:100098001708053A031D582897015A28940A5A2820
:1000A800950A5A28960A5A28970A5A2808000C08C6
:1000B80003399800190603198B288601103085002A
:1000C80000308A00180882076C2873287A2881284B
:1000D80000308A0014088C20860005148828003017
:1000E8008A0015088C2086008514882800308A002C
:1000F80016088C2086000515882800308A00170805
:100108008C20860085158828180899008B280800F7
:1001180082073F3406345B344F3466346D347D34A3
:1001280007347F346F348316D23081001030850055
:1001380000308600831200308E00940095009600EF
:1001480097008F0090008D0010309100920093006E
:0201580008009D
:02400E00F93F78
:00000001FF
