:020000000528D1
:1000080009008A200B2017202920522006280B1DC2
:1000180016280B118C0A8D08031D8D0A0E188F0FD8
:100028001628900A08001030050591001202031DD9
:1000380025280D08083C031C2628110893008D016B
:1000480026280D14110892000800131A2E280130D2
:100058008E0613161008013C031C51288F019001CD
:100068001408093A031D492894011508053A031D87
:100078004B2895011608093A031D4D2896011708C3
:10008800053A031D4F2897015128940A5128950ACB
:100098005128960A5128970A512808000C08033954
:1000A8009800190603197E28860110308500003053
:1000B8008A0018088207632869286F2875288A012A
:1000C80014087F20860005147B288A0115087F20E4
:1000D800860085147B288A0116087F20860005156E
:1000E8007B288A0117087F20860085157B28180839
:1000F80099007E28080082073F3406345B344F3469
:1001080066346D347D3407347F346F348316D230CF
:1001180081001030850000308600831200308E0088
:10012800940095009600970010309100920093007B
:020138000800BD
:02400E00F93F78
:00000001FF
